{
  "abi": [
    {
      "inputs": [
        {
          "internalType": "contract IERC777",
          "name": "_poolDaiToken",
          "type": "address"
        },
        {
          "internalType": "contract IERC777",
          "name": "_poolUsdcToken",
          "type": "address"
        },
        {
          "internalType": "contract MixedPodInterface",
          "name": "_poolDaiPod",
          "type": "address"
        },
        {
          "internalType": "contract MixedPodInterface",
          "name": "_poolUsdcPod",
          "type": "address"
        },
        {
          "internalType": "contract IERC20",
          "name": "_v3Token",
          "type": "address"
        }
      ],
      "stateMutability": "nonpayable",
      "type": "constructor"
    },
    {
      "anonymous": false,
      "inputs": [
        {
          "indexed": true,
          "internalType": "address",
          "name": "previousOwner",
          "type": "address"
        },
        {
          "indexed": true,
          "internalType": "address",
          "name": "newOwner",
          "type": "address"
        }
      ],
      "name": "OwnershipTransferred",
      "type": "event"
    },
    {
      "anonymous": false,
      "inputs": [
        {
          "indexed": false,
          "internalType": "address",
          "name": "token",
          "type": "address"
        },
        {
          "indexed": false,
          "internalType": "address",
          "name": "from",
          "type": "address"
        },
        {
          "indexed": false,
          "internalType": "uint256",
          "name": "amount",
          "type": "uint256"
        }
      ],
      "name": "ReceivedTokens",
      "type": "event"
    },
    {
      "inputs": [
        {
          "internalType": "bytes32",
          "name": "interfaceHash",
          "type": "bytes32"
        },
        {
          "internalType": "address",
          "name": "account",
          "type": "address"
        }
      ],
      "name": "canImplementInterfaceForAddress",
      "outputs": [
        {
          "internalType": "bytes32",
          "name": "",
          "type": "bytes32"
        }
      ],
      "stateMutability": "view",
      "type": "function"
    },
    {
      "inputs": [],
      "name": "owner",
      "outputs": [
        {
          "internalType": "address",
          "name": "",
          "type": "address"
        }
      ],
      "stateMutability": "view",
      "type": "function"
    },
    {
      "inputs": [],
      "name": "poolDaiPod",
      "outputs": [
        {
          "internalType": "contract MixedPodInterface",
          "name": "",
          "type": "address"
        }
      ],
      "stateMutability": "view",
      "type": "function"
    },
    {
      "inputs": [],
      "name": "poolDaiToken",
      "outputs": [
        {
          "internalType": "contract IERC777",
          "name": "",
          "type": "address"
        }
      ],
      "stateMutability": "view",
      "type": "function"
    },
    {
      "inputs": [],
      "name": "poolUsdcPod",
      "outputs": [
        {
          "internalType": "contract MixedPodInterface",
          "name": "",
          "type": "address"
        }
      ],
      "stateMutability": "view",
      "type": "function"
    },
    {
      "inputs": [],
      "name": "poolUsdcToken",
      "outputs": [
        {
          "internalType": "contract IERC777",
          "name": "",
          "type": "address"
        }
      ],
      "stateMutability": "view",
      "type": "function"
    },
    {
      "inputs": [],
      "name": "renounceOwnership",
      "outputs": [],
      "stateMutability": "nonpayable",
      "type": "function"
    },
    {
      "inputs": [
        {
          "internalType": "address",
          "name": "",
          "type": "address"
        },
        {
          "internalType": "address",
          "name": "from",
          "type": "address"
        },
        {
          "internalType": "address",
          "name": "to",
          "type": "address"
        },
        {
          "internalType": "uint256",
          "name": "amount",
          "type": "uint256"
        },
        {
          "internalType": "bytes",
          "name": "",
          "type": "bytes"
        },
        {
          "internalType": "bytes",
          "name": "",
          "type": "bytes"
        }
      ],
      "name": "tokensReceived",
      "outputs": [],
      "stateMutability": "nonpayable",
      "type": "function"
    },
    {
      "inputs": [
        {
          "internalType": "address",
          "name": "newOwner",
          "type": "address"
        }
      ],
      "name": "transferOwnership",
      "outputs": [],
      "stateMutability": "nonpayable",
      "type": "function"
    },
    {
      "inputs": [],
      "name": "v3Token",
      "outputs": [
        {
          "internalType": "contract IERC20",
          "name": "",
          "type": "address"
        }
      ],
      "stateMutability": "view",
      "type": "function"
    },
    {
      "inputs": [
        {
          "internalType": "contract IERC20",
          "name": "token",
          "type": "address"
        }
      ],
      "name": "withdrawERC20",
      "outputs": [],
      "stateMutability": "nonpayable",
      "type": "function"
    },
    {
      "inputs": [
        {
          "internalType": "contract IERC777",
          "name": "token",
          "type": "address"
        }
      ],
      "name": "withdrawERC777",
      "outputs": [],
      "stateMutability": "nonpayable",
      "type": "function"
    }
  ],
  "address": "0x071911fA06AB97447D644eE4d5BCFdD63C1081a0",
  "args": [
    "0x49d716DFe60b37379010A75329ae09428f17118d",
    "0xBD87447F48ad729C5c4b8bcb503e1395F62e8B98",
    "0x9F4C5D8d9BE360DF36E67F52aE55C1B137B4d0C4",
    "0x6F5587E191C8b222F634C78111F97c4851663ba4",
    "0x334cBb5858417Aee161B53Ee0D5349cCF54514CF"
  ],
  "solcInputHash": "0x5f97cadb2e14e3b1dba1138cf45a9cf9906d55542cdcab9406e0578a54f1f6ca",
  "bytecode": "0x60806040523480156200001157600080fd5b506040516200106538038062001065833981810160405260a08110156200003757600080fd5b50805160208201516040808401516060850151608090950151609780546001600160a01b03199081166001600160a01b0380891691909117909255609880548216838816179055609980548216838616179055609a80548216838a16179055609b805490911691831691909117905582516329965a1d60e01b815230600482018190527fb281fc8c12954d22544db45de3159a39272895b169a852b314f9cc762e44c53b602483015260448201529251949593949193929091731820a4b7618bde71dce8cdc73aab6c95905fad24916329965a1d91606480830192600092919082900301818387803b1580156200012d57600080fd5b505af115801562000142573d6000803e3d6000fd5b50505050620001566200016160201b60201c565b5050505050620003d4565b600054610100900460ff16806200017d57506200017d6200021f565b806200018c575060005460ff16155b620001c95760405162461bcd60e51b815260040180806020018281038252602e81526020018062001037602e913960400191505060405180910390fd5b600054610100900460ff16158015620001f5576000805460ff1961ff0019909116610100171660011790555b620001ff62000225565b62000209620002cd565b80156200021c576000805461ff00191690555b50565b303b1590565b600054610100900460ff1680620002415750620002416200021f565b8062000250575060005460ff16155b6200028d5760405162461bcd60e51b815260040180806020018281038252602e81526020018062001037602e913960400191505060405180910390fd5b600054610100900460ff1615801562000209576000805460ff1961ff00199091166101001716600117905580156200021c576000805461ff001916905550565b600054610100900460ff1680620002e95750620002e96200021f565b80620002f8575060005460ff16155b620003355760405162461bcd60e51b815260040180806020018281038252602e81526020018062001037602e913960400191505060405180910390fd5b600054610100900460ff1615801562000361576000805460ff1961ff0019909116610100171660011790555b60006200036d620003d0565b606580546001600160a01b0319166001600160a01b038316908117909155604051919250906000907f8be0079c531659141344cd1fd0a4f28419497f9722a3daafe3b4186f6b6457e0908290a35080156200021c576000805461ff001916905550565b3390565b610c5380620003e46000396000f3fe608060405234801561001057600080fd5b50600436106100b35760003560e01c8063715018a611610071578063715018a61461023c5780638da5cb5b14610244578063bf5486f61461024c578063da52e52e14610254578063f2fde38b1461025c578063f4f3b20014610282576100b3565b806223de29146100b857806310b25362146101a45780631b771bd6146101c8578063249cb3fa146101d05780634761f9d81461020e57806363d190fa14610216575b600080fd5b6101a2600480360360c08110156100ce57600080fd5b6001600160a01b03823581169260208101358216926040820135909216916060820135919081019060a08101608082013564010000000081111561011157600080fd5b82018360208201111561012357600080fd5b8035906020019184600183028401116401000000008311171561014557600080fd5b91939092909160208101903564010000000081111561016357600080fd5b82018360208201111561017557600080fd5b8035906020019184600183028401116401000000008311171561019757600080fd5b5090925090506102a8565b005b6101ac6106ad565b604080516001600160a01b039092168252519081900360200190f35b6101ac6106bc565b6101fc600480360360408110156101e657600080fd5b50803590602001356001600160a01b03166106cb565b60408051918252519081900360200190f35b6101ac610758565b6101a26004803603602081101561022c57600080fd5b50356001600160a01b0316610767565b6101a26108b5565b6101ac610957565b6101ac610966565b6101ac610975565b6101a26004803603602081101561027257600080fd5b50356001600160a01b0316610984565b6101a26004803603602081101561029857600080fd5b50356001600160a01b0316610a7d565b6001600160a01b0386163014610305576040805162461bcd60e51b815260206004820152601960248201527f4d6967726174655632546f56332f6f6e6c792d746f6b656e7300000000000000604482015290519081900360640190fd5b6097546001600160a01b03163314156103a057609b546040805163a9059cbb60e01b81526001600160a01b038a81166004830152602482018990529151919092169163a9059cbb9160448083019260209291908290030181600087803b15801561036e57600080fd5b505af1158015610382573d6000803e3d6000fd5b505050506040513d602081101561039857600080fd5b5061065b9050565b6098546001600160a01b031633141561040f57609b546040805163a9059cbb60e01b81526001600160a01b038a8116600483015264e8d4a51000890260248301529151919092169163a9059cbb9160448083019260209291908290030181600087803b15801561036e57600080fd5b6099546001600160a01b0316331415610525576099546040805163d67d7a7d60e01b81526004810188905290516000926001600160a01b03169163d67d7a7d916024808301926020929190829003018186803b15801561046e57600080fd5b505afa158015610482573d6000803e3d6000fd5b505050506040513d602081101561049857600080fd5b5051609b546040805163a9059cbb60e01b81526001600160a01b038c8116600483015260248201859052915193945091169163a9059cbb916044808201926020929091908290030181600087803b1580156104f257600080fd5b505af1158015610506573d6000803e3d6000fd5b505050506040513d602081101561051c57600080fd5b5061065b915050565b609a546001600160a01b031633141561060e57609a546040805163d67d7a7d60e01b81526004810188905290516000926001600160a01b03169163d67d7a7d916024808301926020929190829003018186803b15801561058457600080fd5b505afa158015610598573d6000803e3d6000fd5b505050506040513d60208110156105ae57600080fd5b5051609b546040805163a9059cbb60e01b81526001600160a01b038c8116600483015264e8d4a5100085026024830152915193945091169163a9059cbb916044808201926020929091908290030181600087803b1580156104f257600080fd5b6040805162461bcd60e51b815260206004820152601b60248201527f4d6967726174655632546f56332f756e6b6e6f776e2d746f6b656e0000000000604482015290519081900360640190fd5b604080513381526001600160a01b038916602082015280820187905290517fbd878faa248cebecbb044cc9fd6294f16e5afe7fc344c69ffb1931f90f636fcd9181900360600190a15050505050505050565b6097546001600160a01b031681565b609a546001600160a01b031681565b60006001600160a01b0382163014801561070457507fb281fc8c12954d22544db45de3159a39272895b169a852b314f9cc762e44c53b83145b1561074e57604051602001808073455243313832305f4143434550545f4d4147494360601b8152506014019050604051602081830303815290604052805190602001209050610752565b5060005b92915050565b609b546001600160a01b031681565b61076f610bd3565b6065546001600160a01b039081169116146107bf576040805162461bcd60e51b81526020600482018190526024820152600080516020610bfe833981519152604482015290519081900360640190fd5b6000816001600160a01b03166370a08231306040518263ffffffff1660e01b815260040180826001600160a01b0316815260200191505060206040518083038186803b15801561080e57600080fd5b505afa158015610822573d6000803e3d6000fd5b505050506040513d602081101561083857600080fd5b505160408051634decdde360e11b8152336004820152602481018390526060604482015260006064820181905291519293506001600160a01b03851692639bd9bbc69260a48084019391929182900301818387803b15801561089957600080fd5b505af11580156108ad573d6000803e3d6000fd5b505050505050565b6108bd610bd3565b6065546001600160a01b0390811691161461090d576040805162461bcd60e51b81526020600482018190526024820152600080516020610bfe833981519152604482015290519081900360640190fd5b6065546040516000916001600160a01b0316907f8be0079c531659141344cd1fd0a4f28419497f9722a3daafe3b4186f6b6457e0908390a3606580546001600160a01b0319169055565b6065546001600160a01b031690565b6098546001600160a01b031681565b6099546001600160a01b031681565b61098c610bd3565b6065546001600160a01b039081169116146109dc576040805162461bcd60e51b81526020600482018190526024820152600080516020610bfe833981519152604482015290519081900360640190fd5b6001600160a01b038116610a215760405162461bcd60e51b8152600401808060200182810382526026815260200180610bd86026913960400191505060405180910390fd5b6065546040516001600160a01b038084169216907f8be0079c531659141344cd1fd0a4f28419497f9722a3daafe3b4186f6b6457e090600090a3606580546001600160a01b0319166001600160a01b0392909216919091179055565b610a85610bd3565b6065546001600160a01b03908116911614610ad5576040805162461bcd60e51b81526020600482018190526024820152600080516020610bfe833981519152604482015290519081900360640190fd5b6000816001600160a01b03166370a08231306040518263ffffffff1660e01b815260040180826001600160a01b0316815260200191505060206040518083038186803b158015610b2457600080fd5b505afa158015610b38573d6000803e3d6000fd5b505050506040513d6020811015610b4e57600080fd5b50516040805163a9059cbb60e01b81523360048201526024810183905290519192506001600160a01b0384169163a9059cbb916044808201926020929091908290030181600087803b158015610ba357600080fd5b505af1158015610bb7573d6000803e3d6000fd5b505050506040513d6020811015610bcd57600080fd5b50505050565b339056fe4f776e61626c653a206e6577206f776e657220697320746865207a65726f20616464726573734f776e61626c653a2063616c6c6572206973206e6f7420746865206f776e6572a2646970667358221220c7cccafc59e48a20f65067a86095f0e11de34da347e27fe8c83fde59a25a221b64736f6c634300060c0033436f6e747261637420696e7374616e63652068617320616c7265616479206265656e20696e697469616c697a6564",
  "devdoc": {
    "kind": "dev",
    "methods": {
      "canImplementInterfaceForAddress(bytes32,address)": {
        "details": "Returns a special value (`ERC1820_ACCEPT_MAGIC`) if this contract implements `interfaceHash` for `account`. See {IERC1820Registry-setInterfaceImplementer}."
      },
      "owner()": {
        "details": "Returns the address of the current owner."
      },
      "renounceOwnership()": {
        "details": "Leaves the contract without owner. It will not be possible to call `onlyOwner` functions anymore. Can only be called by the current owner. NOTE: Renouncing ownership will leave the contract without an owner, thereby removing any functionality that is only available to the owner."
      },
      "transferOwnership(address)": {
        "details": "Transfers ownership of the contract to a new account (`newOwner`). Can only be called by the current owner."
      }
    },
    "version": 1
  },
  "userdoc": {
    "kind": "user",
    "methods": {},
    "version": 1
  },
  "storageLayout": {
    "storage": [
      {
        "astId": 50,
        "contract": "contracts/MigrateV2ToV3.sol:MigrateV2ToV3",
        "label": "initialized",
        "offset": 0,
        "slot": "0",
        "type": "t_bool"
      },
      {
        "astId": 53,
        "contract": "contracts/MigrateV2ToV3.sol:MigrateV2ToV3",
        "label": "initializing",
        "offset": 1,
        "slot": "0",
        "type": "t_bool"
      },
      {
        "astId": 118,
        "contract": "contracts/MigrateV2ToV3.sol:MigrateV2ToV3",
        "label": "______gap",
        "offset": 0,
        "slot": "1",
        "type": "t_array(t_uint256)50_storage"
      },
      {
        "astId": 43,
        "contract": "contracts/MigrateV2ToV3.sol:MigrateV2ToV3",
        "label": "__gap",
        "offset": 0,
        "slot": "51",
        "type": "t_array(t_uint256)50_storage"
      },
      {
        "astId": 130,
        "contract": "contracts/MigrateV2ToV3.sol:MigrateV2ToV3",
        "label": "_owner",
        "offset": 0,
        "slot": "101",
        "type": "t_address"
      },
      {
        "astId": 248,
        "contract": "contracts/MigrateV2ToV3.sol:MigrateV2ToV3",
        "label": "__gap",
        "offset": 0,
        "slot": "102",
        "type": "t_array(t_uint256)49_storage"
      },
      {
        "astId": 2586,
        "contract": "contracts/MigrateV2ToV3.sol:MigrateV2ToV3",
        "label": "poolDaiToken",
        "offset": 0,
        "slot": "151",
        "type": "t_contract(IERC777)2440"
      },
      {
        "astId": 2588,
        "contract": "contracts/MigrateV2ToV3.sol:MigrateV2ToV3",
        "label": "poolUsdcToken",
        "offset": 0,
        "slot": "152",
        "type": "t_contract(IERC777)2440"
      },
      {
        "astId": 2590,
        "contract": "contracts/MigrateV2ToV3.sol:MigrateV2ToV3",
        "label": "poolDaiPod",
        "offset": 0,
        "slot": "153",
        "type": "t_contract(MixedPodInterface)2860"
      },
      {
        "astId": 2592,
        "contract": "contracts/MigrateV2ToV3.sol:MigrateV2ToV3",
        "label": "poolUsdcPod",
        "offset": 0,
        "slot": "154",
        "type": "t_contract(MixedPodInterface)2860"
      },
      {
        "astId": 2594,
        "contract": "contracts/MigrateV2ToV3.sol:MigrateV2ToV3",
        "label": "v3Token",
        "offset": 0,
        "slot": "155",
        "type": "t_contract(IERC20)1161"
      }
    ],
    "types": {
      "t_address": {
        "encoding": "inplace",
        "label": "address",
        "numberOfBytes": "20"
      },
      "t_array(t_uint256)49_storage": {
        "base": "t_uint256",
        "encoding": "inplace",
        "label": "uint256[49]",
        "numberOfBytes": "1568"
      },
      "t_array(t_uint256)50_storage": {
        "base": "t_uint256",
        "encoding": "inplace",
        "label": "uint256[50]",
        "numberOfBytes": "1600"
      },
      "t_bool": {
        "encoding": "inplace",
        "label": "bool",
        "numberOfBytes": "1"
      },
      "t_contract(IERC20)1161": {
        "encoding": "inplace",
        "label": "contract IERC20",
        "numberOfBytes": "20"
      },
      "t_contract(IERC777)2440": {
        "encoding": "inplace",
        "label": "contract IERC777",
        "numberOfBytes": "20"
      },
      "t_contract(MixedPodInterface)2860": {
        "encoding": "inplace",
        "label": "contract MixedPodInterface",
        "numberOfBytes": "20"
      },
      "t_uint256": {
        "encoding": "inplace",
        "label": "uint256",
        "numberOfBytes": "32"
      }
    }
  },
  "gasEstimates": {
    "creation": {
      "codeDepositCost": "631000",
      "executionCost": "infinite",
      "totalCost": "infinite"
    },
    "external": {
      "canImplementInterfaceForAddress(bytes32,address)": "576",
      "owner()": "1059",
      "poolDaiPod()": "1103",
      "poolDaiToken()": "1060",
      "poolUsdcPod()": "1082",
      "poolUsdcToken()": "1081",
      "renounceOwnership()": "infinite",
      "tokensReceived(address,address,address,uint256,bytes,bytes)": "infinite",
      "transferOwnership(address)": "infinite",
      "v3Token()": "1126",
      "withdrawERC20(address)": "infinite",
      "withdrawERC777(address)": "infinite"
    }
  }
}