{
  "abi": [
    {
      "inputs": [
        {
          "internalType": "contract IERC777",
          "name": "_poolDaiToken",
          "type": "address"
        },
        {
          "internalType": "contract IERC777",
          "name": "_poolUsdcToken",
          "type": "address"
        },
        {
          "internalType": "contract MixedPodInterface",
          "name": "_poolDaiPod",
          "type": "address"
        },
        {
          "internalType": "contract MixedPodInterface",
          "name": "_poolUsdcPod",
          "type": "address"
        },
        {
          "internalType": "contract IERC20",
          "name": "_v3Token",
          "type": "address"
        }
      ],
      "stateMutability": "nonpayable",
      "type": "constructor"
    },
    {
      "anonymous": false,
      "inputs": [
        {
          "indexed": true,
          "internalType": "address",
          "name": "previousOwner",
          "type": "address"
        },
        {
          "indexed": true,
          "internalType": "address",
          "name": "newOwner",
          "type": "address"
        }
      ],
      "name": "OwnershipTransferred",
      "type": "event"
    },
    {
      "anonymous": false,
      "inputs": [
        {
          "indexed": false,
          "internalType": "address",
          "name": "token",
          "type": "address"
        },
        {
          "indexed": false,
          "internalType": "address",
          "name": "from",
          "type": "address"
        },
        {
          "indexed": false,
          "internalType": "uint256",
          "name": "amount",
          "type": "uint256"
        }
      ],
      "name": "ReceivedTokens",
      "type": "event"
    },
    {
      "inputs": [],
      "name": "owner",
      "outputs": [
        {
          "internalType": "address",
          "name": "",
          "type": "address"
        }
      ],
      "stateMutability": "view",
      "type": "function"
    },
    {
      "inputs": [],
      "name": "poolDaiPod",
      "outputs": [
        {
          "internalType": "contract MixedPodInterface",
          "name": "",
          "type": "address"
        }
      ],
      "stateMutability": "view",
      "type": "function"
    },
    {
      "inputs": [],
      "name": "poolDaiToken",
      "outputs": [
        {
          "internalType": "contract IERC777",
          "name": "",
          "type": "address"
        }
      ],
      "stateMutability": "view",
      "type": "function"
    },
    {
      "inputs": [],
      "name": "poolUsdcPod",
      "outputs": [
        {
          "internalType": "contract MixedPodInterface",
          "name": "",
          "type": "address"
        }
      ],
      "stateMutability": "view",
      "type": "function"
    },
    {
      "inputs": [],
      "name": "poolUsdcToken",
      "outputs": [
        {
          "internalType": "contract IERC777",
          "name": "",
          "type": "address"
        }
      ],
      "stateMutability": "view",
      "type": "function"
    },
    {
      "inputs": [],
      "name": "renounceOwnership",
      "outputs": [],
      "stateMutability": "nonpayable",
      "type": "function"
    },
    {
      "inputs": [
        {
          "internalType": "address",
          "name": "",
          "type": "address"
        },
        {
          "internalType": "address",
          "name": "from",
          "type": "address"
        },
        {
          "internalType": "address",
          "name": "to",
          "type": "address"
        },
        {
          "internalType": "uint256",
          "name": "amount",
          "type": "uint256"
        },
        {
          "internalType": "bytes",
          "name": "",
          "type": "bytes"
        },
        {
          "internalType": "bytes",
          "name": "",
          "type": "bytes"
        }
      ],
      "name": "tokensReceived",
      "outputs": [],
      "stateMutability": "nonpayable",
      "type": "function"
    },
    {
      "inputs": [
        {
          "internalType": "address",
          "name": "newOwner",
          "type": "address"
        }
      ],
      "name": "transferOwnership",
      "outputs": [],
      "stateMutability": "nonpayable",
      "type": "function"
    },
    {
      "inputs": [],
      "name": "v3Token",
      "outputs": [
        {
          "internalType": "contract IERC20",
          "name": "",
          "type": "address"
        }
      ],
      "stateMutability": "view",
      "type": "function"
    },
    {
      "inputs": [
        {
          "internalType": "contract IERC20",
          "name": "token",
          "type": "address"
        },
        {
          "internalType": "address",
          "name": "to",
          "type": "address"
        }
      ],
      "name": "withdrawERC20",
      "outputs": [],
      "stateMutability": "nonpayable",
      "type": "function"
    },
    {
      "inputs": [
        {
          "internalType": "contract IERC20[]",
          "name": "tokens",
          "type": "address[]"
        },
        {
          "internalType": "address",
          "name": "recipient",
          "type": "address"
        }
      ],
      "name": "withdrawERC20Batch",
      "outputs": [],
      "stateMutability": "nonpayable",
      "type": "function"
    },
    {
      "inputs": [
        {
          "internalType": "contract IERC721",
          "name": "token",
          "type": "address"
        },
        {
          "internalType": "uint256",
          "name": "id",
          "type": "uint256"
        },
        {
          "internalType": "address",
          "name": "to",
          "type": "address"
        }
      ],
      "name": "withdrawERC721",
      "outputs": [],
      "stateMutability": "nonpayable",
      "type": "function"
    },
    {
      "inputs": [
        {
          "internalType": "contract IERC777",
          "name": "token",
          "type": "address"
        },
        {
          "internalType": "address",
          "name": "to",
          "type": "address"
        }
      ],
      "name": "withdrawERC777",
      "outputs": [],
      "stateMutability": "nonpayable",
      "type": "function"
    }
  ],
  "address": "0x45a9307cB7d99767E9c39638013A499dDbAb06Ea",
  "args": [
    "0x49d716DFe60b37379010A75329ae09428f17118d",
    "0xBD87447F48ad729C5c4b8bcb503e1395F62e8B98",
    "0x9F4C5D8d9BE360DF36E67F52aE55C1B137B4d0C4",
    "0x6F5587E191C8b222F634C78111F97c4851663ba4",
    "0x334cBb5858417Aee161B53Ee0D5349cCF54514CF"
  ],
  "solcInputHash": "0x631ecf1f160c4fa48541ac72f6108f350d6377c1422b88c313d3fb3fd224a622",
  "bytecode": "0x60806040523480156200001157600080fd5b50604051620011ee380380620011ee833981810160405260a08110156200003757600080fd5b50805160208201516040808401516060850151608090950151609780546001600160a01b03199081166001600160a01b0380891691909117909255609880548216838816179055609980548216838616179055609a80548216838a16179055609b805490911691831691909117905582516329965a1d60e01b815230600482018190527fb281fc8c12954d22544db45de3159a39272895b169a852b314f9cc762e44c53b602483015260448201529251949593949193929091731820a4b7618bde71dce8cdc73aab6c95905fad24916329965a1d91606480830192600092919082900301818387803b1580156200012d57600080fd5b505af115801562000142573d6000803e3d6000fd5b50505050620001566200016160201b60201c565b5050505050620003d4565b600054610100900460ff16806200017d57506200017d6200021f565b806200018c575060005460ff16155b620001c95760405162461bcd60e51b815260040180806020018281038252602e815260200180620011c0602e913960400191505060405180910390fd5b600054610100900460ff16158015620001f5576000805460ff1961ff0019909116610100171660011790555b620001ff62000225565b62000209620002cd565b80156200021c576000805461ff00191690555b50565b303b1590565b600054610100900460ff1680620002415750620002416200021f565b8062000250575060005460ff16155b6200028d5760405162461bcd60e51b815260040180806020018281038252602e815260200180620011c0602e913960400191505060405180910390fd5b600054610100900460ff1615801562000209576000805460ff1961ff00199091166101001716600117905580156200021c576000805461ff001916905550565b600054610100900460ff1680620002e95750620002e96200021f565b80620002f8575060005460ff16155b620003355760405162461bcd60e51b815260040180806020018281038252602e815260200180620011c0602e913960400191505060405180910390fd5b600054610100900460ff1615801562000361576000805460ff1961ff0019909116610100171660011790555b60006200036d620003d0565b606580546001600160a01b0319166001600160a01b038316908117909155604051919250906000907f8be0079c531659141344cd1fd0a4f28419497f9722a3daafe3b4186f6b6457e0908290a35080156200021c576000805461ff001916905550565b3390565b610ddc80620003e46000396000f3fe608060405234801561001057600080fd5b50600436106100ce5760003560e01c806377ad590e1161008c5780639456fbcc116100665780639456fbcc14610315578063bf5486f614610343578063da52e52e1461034b578063f2fde38b14610353576100ce565b806377ad590e146102a95780637b9f76b5146102d75780638da5cb5b1461030d576100ce565b806223de29146100d357806310b25362146101bf5780631b771bd6146101e35780634761f9d8146101eb5780635922d5ec146101f3578063715018a6146102a1575b600080fd5b6101bd600480360360c08110156100e957600080fd5b6001600160a01b03823581169260208101358216926040820135909216916060820135919081019060a08101608082013564010000000081111561012c57600080fd5b82018360208201111561013e57600080fd5b8035906020019184600183028401116401000000008311171561016057600080fd5b91939092909160208101903564010000000081111561017e57600080fd5b82018360208201111561019057600080fd5b803590602001918460018302840111640100000000831117156101b257600080fd5b509092509050610379565b005b6101c761077e565b604080516001600160a01b039092168252519081900360200190f35b6101c761078d565b6101c761079c565b6101bd6004803603604081101561020957600080fd5b81019060208101813564010000000081111561022457600080fd5b82018360208201111561023657600080fd5b8035906020019184602083028401116401000000008311171561025857600080fd5b919080806020026020016040519081016040528093929190818152602001838360200280828437600092019190915250929550505090356001600160a01b031691506107ab9050565b6101bd610839565b6101bd600480360360408110156102bf57600080fd5b506001600160a01b03813581169160200135166108db565b6101bd600480360360608110156102ed57600080fd5b506001600160a01b03813581169160208101359160409091013516610a2c565b6101c7610adc565b6101bd6004803603604081101561032b57600080fd5b506001600160a01b0381358116916020013516610aeb565b6101c7610c45565b6101c7610c54565b6101bd6004803603602081101561036957600080fd5b50356001600160a01b0316610c63565b6001600160a01b03861630146103d6576040805162461bcd60e51b815260206004820152601960248201527f4d6967726174655632546f56332f6f6e6c792d746f6b656e7300000000000000604482015290519081900360640190fd5b6097546001600160a01b031633141561047157609b546040805163a9059cbb60e01b81526001600160a01b038a81166004830152602482018990529151919092169163a9059cbb9160448083019260209291908290030181600087803b15801561043f57600080fd5b505af1158015610453573d6000803e3d6000fd5b505050506040513d602081101561046957600080fd5b5061072c9050565b6098546001600160a01b03163314156104e057609b546040805163a9059cbb60e01b81526001600160a01b038a8116600483015264e8d4a51000890260248301529151919092169163a9059cbb9160448083019260209291908290030181600087803b15801561043f57600080fd5b6099546001600160a01b03163314156105f6576099546040805163d67d7a7d60e01b81526004810188905290516000926001600160a01b03169163d67d7a7d916024808301926020929190829003018186803b15801561053f57600080fd5b505afa158015610553573d6000803e3d6000fd5b505050506040513d602081101561056957600080fd5b5051609b546040805163a9059cbb60e01b81526001600160a01b038c8116600483015260248201859052915193945091169163a9059cbb916044808201926020929091908290030181600087803b1580156105c357600080fd5b505af11580156105d7573d6000803e3d6000fd5b505050506040513d60208110156105ed57600080fd5b5061072c915050565b609a546001600160a01b03163314156106df57609a546040805163d67d7a7d60e01b81526004810188905290516000926001600160a01b03169163d67d7a7d916024808301926020929190829003018186803b15801561065557600080fd5b505afa158015610669573d6000803e3d6000fd5b505050506040513d602081101561067f57600080fd5b5051609b546040805163a9059cbb60e01b81526001600160a01b038c8116600483015264e8d4a5100085026024830152915193945091169163a9059cbb916044808201926020929091908290030181600087803b1580156105c357600080fd5b6040805162461bcd60e51b815260206004820152601b60248201527f4d6967726174655632546f56332f756e6b6e6f776e2d746f6b656e0000000000604482015290519081900360640190fd5b604080513381526001600160a01b038916602082015280820187905290517fbd878faa248cebecbb044cc9fd6294f16e5afe7fc344c69ffb1931f90f636fcd9181900360600190a15050505050505050565b6097546001600160a01b031681565b609a546001600160a01b031681565b609b546001600160a01b031681565b6107b3610d5c565b6065546001600160a01b03908116911614610803576040805162461bcd60e51b81526020600482018190526024820152600080516020610d87833981519152604482015290519081900360640190fd5b60005b82518110156108345761082c83828151811061081e57fe5b602002602001015183610aeb565b600101610806565b505050565b610841610d5c565b6065546001600160a01b03908116911614610891576040805162461bcd60e51b81526020600482018190526024820152600080516020610d87833981519152604482015290519081900360640190fd5b6065546040516000916001600160a01b0316907f8be0079c531659141344cd1fd0a4f28419497f9722a3daafe3b4186f6b6457e0908390a3606580546001600160a01b0319169055565b6108e3610d5c565b6065546001600160a01b03908116911614610933576040805162461bcd60e51b81526020600482018190526024820152600080516020610d87833981519152604482015290519081900360640190fd5b6000826001600160a01b03166370a08231306040518263ffffffff1660e01b815260040180826001600160a01b0316815260200191505060206040518083038186803b15801561098257600080fd5b505afa158015610996573d6000803e3d6000fd5b505050506040513d60208110156109ac57600080fd5b505160408051634decdde360e11b81526001600160a01b03858116600483015260248201849052606060448301526000606483018190529251939450861692639bd9bbc69260a48084019391929182900301818387803b158015610a0f57600080fd5b505af1158015610a23573d6000803e3d6000fd5b50505050505050565b610a34610d5c565b6065546001600160a01b03908116911614610a84576040805162461bcd60e51b81526020600482018190526024820152600080516020610d87833981519152604482015290519081900360640190fd5b604080516323b872dd60e01b81523060048201526001600160a01b038381166024830152604482018590529151918516916323b872dd9160648082019260009290919082900301818387803b158015610a0f57600080fd5b6065546001600160a01b031690565b610af3610d5c565b6065546001600160a01b03908116911614610b43576040805162461bcd60e51b81526020600482018190526024820152600080516020610d87833981519152604482015290519081900360640190fd5b6000826001600160a01b03166370a08231306040518263ffffffff1660e01b815260040180826001600160a01b0316815260200191505060206040518083038186803b158015610b9257600080fd5b505afa158015610ba6573d6000803e3d6000fd5b505050506040513d6020811015610bbc57600080fd5b50516040805163a9059cbb60e01b81526001600160a01b0385811660048301526024820184905291519293509085169163a9059cbb916044808201926020929091908290030181600087803b158015610c1457600080fd5b505af1158015610c28573d6000803e3d6000fd5b505050506040513d6020811015610c3e57600080fd5b5050505050565b6098546001600160a01b031681565b6099546001600160a01b031681565b610c6b610d5c565b6065546001600160a01b03908116911614610cbb576040805162461bcd60e51b81526020600482018190526024820152600080516020610d87833981519152604482015290519081900360640190fd5b6001600160a01b038116610d005760405162461bcd60e51b8152600401808060200182810382526026815260200180610d616026913960400191505060405180910390fd5b6065546040516001600160a01b038084169216907f8be0079c531659141344cd1fd0a4f28419497f9722a3daafe3b4186f6b6457e090600090a3606580546001600160a01b0319166001600160a01b0392909216919091179055565b339056fe4f776e61626c653a206e6577206f776e657220697320746865207a65726f20616464726573734f776e61626c653a2063616c6c6572206973206e6f7420746865206f776e6572a264697066735822122016c70f0199bb731bd30bc9342414c53769df05338a04b5ddbe8e3cd740188f1964736f6c634300060c0033436f6e747261637420696e7374616e63652068617320616c7265616479206265656e20696e697469616c697a6564",
  "devdoc": {
    "details": "Note that V3 tickets need to be transferred to this contract for liquidity.",
    "kind": "dev",
    "methods": {
      "constructor": {
        "params": {
          "_poolDaiPod": "The V2 Pool Dai pod token",
          "_poolDaiToken": "The V2 Pool Dai token",
          "_poolUsdcPod": "The V2 Pool USDC pod token",
          "_poolUsdcToken": "The V2 Pool USDC token",
          "_v3Token": "The V3 Pool Dai token"
        }
      },
      "owner()": {
        "details": "Returns the address of the current owner."
      },
      "renounceOwnership()": {
        "details": "Leaves the contract without owner. It will not be possible to call `onlyOwner` functions anymore. Can only be called by the current owner. NOTE: Renouncing ownership will leave the contract without an owner, thereby removing any functionality that is only available to the owner."
      },
      "tokensReceived(address,address,address,uint256,bytes,bytes)": {
        "params": {
          "amount": "The amount of tokens that were sent",
          "from": "The user who sent the tokens",
          "to": "The recipient of the tokens"
        }
      },
      "transferOwnership(address)": {
        "details": "Transfers ownership of the contract to a new account (`newOwner`). Can only be called by the current owner."
      },
      "withdrawERC20(address,address)": {
        "params": {
          "token": "The ERC20 token whose entire balance should be transferred to the owner"
        }
      },
      "withdrawERC721(address,uint256,address)": {
        "params": {
          "id": "The id of the token to transfer",
          "token": "The ERC721 to withdraw"
        }
      },
      "withdrawERC777(address,address)": {
        "params": {
          "token": "The ERC777 token whose entire balance should be transferred to the owner."
        }
      }
    },
    "title": "Allows no-slippage swaps from PoolTogether V2 tickets to V3",
    "version": 1
  },
  "userdoc": {
    "events": {
      "ReceivedTokens(address,address,uint256)": {
        "notice": "Emitted when V2 tokens are received by this contract.  May be tickets or Pod shares."
      }
    },
    "kind": "user",
    "methods": {
      "constructor": "initializes the migration contract",
      "poolDaiPod()": {
        "notice": "The PoolTogether V2 Pool Dai Pod token"
      },
      "poolDaiToken()": {
        "notice": "The PoolTogether V2 Pool Dai token"
      },
      "poolUsdcPod()": {
        "notice": "The PoolTogether V2 Pool USDC Pod token"
      },
      "poolUsdcToken()": {
        "notice": "THe PoolTogether V2 Pool USDC token"
      },
      "tokensReceived(address,address,address,uint256,bytes,bytes)": {
        "notice": "This function is called by ERC777 tokens after tokens have been transferred to this contract. This function will transfer V3 tokens held by the migration contract to the sender.  The tokens will be exchanged 1:1 with Pool Dai and Pool USDC tokens (denomination withstanding).  The tokens will be exchanged 1:1 with the underlying value of Pool Dai Pod shares and Pool USDC Pod shares (i.e. the Dai and USDC value, respectively)."
      },
      "v3Token()": {
        "notice": "The PoolTogether V3 Pool Dai Token"
      },
      "withdrawERC20(address,address)": {
        "notice": "Allows the owner of the contract to withdraw any ERC20 tokens"
      },
      "withdrawERC721(address,uint256,address)": {
        "notice": "Allows the owner of the contract to withdraw any ERC721 token"
      },
      "withdrawERC777(address,address)": {
        "notice": "Allows the owner of the contract to withdraw any ERC777 tokens."
      }
    },
    "version": 1
  },
  "storageLayout": {
    "storage": [
      {
        "astId": 50,
        "contract": "contracts/MigrateV2ToV3.sol:MigrateV2ToV3",
        "label": "initialized",
        "offset": 0,
        "slot": "0",
        "type": "t_bool"
      },
      {
        "astId": 53,
        "contract": "contracts/MigrateV2ToV3.sol:MigrateV2ToV3",
        "label": "initializing",
        "offset": 1,
        "slot": "0",
        "type": "t_bool"
      },
      {
        "astId": 118,
        "contract": "contracts/MigrateV2ToV3.sol:MigrateV2ToV3",
        "label": "______gap",
        "offset": 0,
        "slot": "1",
        "type": "t_array(t_uint256)50_storage"
      },
      {
        "astId": 43,
        "contract": "contracts/MigrateV2ToV3.sol:MigrateV2ToV3",
        "label": "__gap",
        "offset": 0,
        "slot": "51",
        "type": "t_array(t_uint256)50_storage"
      },
      {
        "astId": 130,
        "contract": "contracts/MigrateV2ToV3.sol:MigrateV2ToV3",
        "label": "_owner",
        "offset": 0,
        "slot": "101",
        "type": "t_address"
      },
      {
        "astId": 248,
        "contract": "contracts/MigrateV2ToV3.sol:MigrateV2ToV3",
        "label": "__gap",
        "offset": 0,
        "slot": "102",
        "type": "t_array(t_uint256)49_storage"
      },
      {
        "astId": 4768,
        "contract": "contracts/MigrateV2ToV3.sol:MigrateV2ToV3",
        "label": "poolDaiToken",
        "offset": 0,
        "slot": "151",
        "type": "t_contract(IERC777)3683"
      },
      {
        "astId": 4771,
        "contract": "contracts/MigrateV2ToV3.sol:MigrateV2ToV3",
        "label": "poolUsdcToken",
        "offset": 0,
        "slot": "152",
        "type": "t_contract(IERC777)3683"
      },
      {
        "astId": 4774,
        "contract": "contracts/MigrateV2ToV3.sol:MigrateV2ToV3",
        "label": "poolDaiPod",
        "offset": 0,
        "slot": "153",
        "type": "t_contract(MixedPodInterface)5077"
      },
      {
        "astId": 4777,
        "contract": "contracts/MigrateV2ToV3.sol:MigrateV2ToV3",
        "label": "poolUsdcPod",
        "offset": 0,
        "slot": "154",
        "type": "t_contract(MixedPodInterface)5077"
      },
      {
        "astId": 4780,
        "contract": "contracts/MigrateV2ToV3.sol:MigrateV2ToV3",
        "label": "v3Token",
        "offset": 0,
        "slot": "155",
        "type": "t_contract(IERC20)1248"
      }
    ],
    "types": {
      "t_address": {
        "encoding": "inplace",
        "label": "address",
        "numberOfBytes": "20"
      },
      "t_array(t_uint256)49_storage": {
        "base": "t_uint256",
        "encoding": "inplace",
        "label": "uint256[49]",
        "numberOfBytes": "1568"
      },
      "t_array(t_uint256)50_storage": {
        "base": "t_uint256",
        "encoding": "inplace",
        "label": "uint256[50]",
        "numberOfBytes": "1600"
      },
      "t_bool": {
        "encoding": "inplace",
        "label": "bool",
        "numberOfBytes": "1"
      },
      "t_contract(IERC20)1248": {
        "encoding": "inplace",
        "label": "contract IERC20",
        "numberOfBytes": "20"
      },
      "t_contract(IERC777)3683": {
        "encoding": "inplace",
        "label": "contract IERC777",
        "numberOfBytes": "20"
      },
      "t_contract(MixedPodInterface)5077": {
        "encoding": "inplace",
        "label": "contract MixedPodInterface",
        "numberOfBytes": "20"
      },
      "t_uint256": {
        "encoding": "inplace",
        "label": "uint256",
        "numberOfBytes": "32"
      }
    }
  },
  "gasEstimates": {
    "creation": {
      "codeDepositCost": "709600",
      "executionCost": "infinite",
      "totalCost": "infinite"
    },
    "external": {
      "owner()": "1104",
      "poolDaiPod()": "1103",
      "poolDaiToken()": "1060",
      "poolUsdcPod()": "1082",
      "poolUsdcToken()": "1081",
      "renounceOwnership()": "infinite",
      "tokensReceived(address,address,address,uint256,bytes,bytes)": "infinite",
      "transferOwnership(address)": "infinite",
      "v3Token()": "1104",
      "withdrawERC20(address,address)": "infinite",
      "withdrawERC20Batch(address[],address)": "infinite",
      "withdrawERC721(address,uint256,address)": "infinite",
      "withdrawERC777(address,address)": "infinite"
    }
  }
}